:020000040000FA
:040000008031102813
:100008007E1480312000121D0A280B280E28813109
:100018005C2180317E100900803112288F31E6275B
:100028008031E1008F31E7278031E2008F31E82706
:100038008031E3008F31E9278031E400FD01303061
:100048008400003085002A308F31EA2780317E1005
:10005800200087316A2F1F3020004005F000700310
:10006800031D37283828C828440803193C283D2888
:100078003F28C828C8284108F0007008F200063058
:100088007206031D4828492871284308F0007008A3
:10009800F10021307106031D522853286028B80149
:1000A800B80AFE30B2008630B3001930B000003014
:1000B800B100B501B50A712822307106031D652803
:1000C80066287128B801B80AA630B2008630B30095
:1000D8002A30B0000030B1005D2860304005F000E3
:1000E80020307006031979287A287B28C8287203DB
:1000F800031D7F2880288128C82809307206031D1F
:10010800862887288C28B901B90AB801B80AC828EE
:1001180002307206031D912892289E28B801B80A59
:100128005830F0007008B6000130B0000030B1005F
:10013800B501C8280A307206031DA328A428AB28D5
:10014800B801B80A4308F0007008D800C82803307E
:100158007206031DB028B128BC28B801B80A573068
:10016800F0007008B6000130B0000030B1009C28E3
:100178000B307206031DC128C2283E28B801B80AF0
:100188004208F0007008D700080020004108F60077
:100198007608F700400860390319D328D428D528F1
:1001A8005B2905307706031DDA28DB28E628B80125
:1001B800B80A0430F6007608BF004208F600760850
:1001C800BC005B2906307706031DEB28EC28F028D5
:1001D8008431A92480315B2909307706031DF5286D
:1001E800F6280E29B801B80A4208F6007608D900A0
:1001F8005908031D0029012906290430F60076084C
:10020800BF005B290530F6007608BF008131EE217A
:1002180080315B2908307706031D1329142920290A
:10022800B801B80A5930F6007608B6000130B000B7
:100238000030B100B5015B297708031D2429252961
:1002480029298431442480315B29770303192D2916
:100258002E29342903307706031D332934293829F8
:100268008231F92280315B290A307706031D3D2946
:100278003E294B29B801B80AC9014930F600760869
:10028800B6000130B0000030B100B5015B290B3079
:100298007706031D502951295429B801B80A5B294A
:1002A80007307706031D59295A295B295B2908005D
:1002B80020003F08031D6129622967293D0090013C
:1002C80020001211ED293D00101D6B296C29782999
:1002D800121D6F29702978298F31F8278131FB3059
:1002E800FC007C083D0090058E1C7B297C29802918
:1002F800900120001211ED29101C832984299029CE
:10030800121C872988299029873117278131FE30C7
:10031800FC007C083D009005101E93299429A02913
:10032800121E97299829A0298F31F0278131EF30A3
:10033800FC007C083D009005101FA329A429B029C2
:10034800121FA729A829B0298F31DF278131BF3093
:10035800FC007C083D009005901EB329B429C029F3
:10036800921EB729B829C0298731E0278131DF30AB
:10037800FC007C083D009005901CC329C429CE29A7
:10038800921CC729C829CE2990109301FD30FC0082
:100398007C089005033020003F020318D429D52992
:1003A800DA293D00900120001211ED293D00901D31
:1003B800DE29DF29EB29921DE229E329EB29833184
:1003C8006B238131F730FC007C083D00900520004C
:1003D80012110800F4012000B701F4011E30F000EA
:1003E8007408993E86000E308700700881007408F2
:1003F800F0000130F035FF3E031DFE297035633EE5
:10040800860087010108F1007408F2000230F23515
:10041800FF3E031D0B2A7235293E860087017108AD
:1004280081007408F0000130F035FF3E031D182AE2
:100438007035643E860087010108F1000030F20043
:100448007408F3000230F335FF3E031D272A733585
:100458002A3E860087017108C03F7208C13F883074
:10046800F0007408F1000230F135FF3E031D382A10
:100478007135283E86008701700881007408F000F5
:100488000130F035FF3E031D452A7035623E860077
:1004980087010108F1000030F2007408F30002300F
:1004A800F335FF3E031D542A73352E3E860087011F
:1004B8007108C03F7208C13F4030F0007408F10075
:1004C8000230F135FF3E031D652A71352C3E86004A
:1004D8008701700881000130F0007008F407740883
:1004E8000319772A782AF2290800003020003102FF
:1004F8000830031930020318822A832A882A31080F
:10050800F4003008F3008C2A0830F3000030F400BF
:10051800FC30F0007008A40574080339F000700876
:10052800A4047308F0007008A5004930A600003044
:10053800A70073083002B0007408313BB10049309D
:10054800F0007008FD003503031DAB2AAC2AD32A3E
:10055800F201C52A32088400330885000008F0003B
:100568007D0886008701700881000130B2070030DD
:10057800B33D0130F0007008FD070130F00070084D
:10058800F2077208F000F10174087102031DCE2A07
:1005980073087002031CD12AD22AAE2AF82AF20163
:1005A800EB2A3608860087010108F0007D088600DE
:1005B8008701700881000130F0007008B60701302B
:1005C800F0007008FD070130F0007008F2077208AB
:1005D800F000F10174087102031DF42A7308700217
:1005E800031CF72AF82AD52A0800200040081F39DA
:1005F800F0007008F2004208F0007008F30072087A
:10060800031D072B082B1A2B7303031D0C2B0D2B13
:100618006A2BB801B80A03304106031D142B152BA9
:10062800182BBD01BD0A6A2BBD016A2B0230720668
:10063800031D1F2B202B6A2B44080F39F00070086C
:10064800F40044088039F0007008F5007308031DB1
:100658002E2B2F2B6A2B74080319332B342B6A2B60
:10066800B801B80A7408F0000230F035FF3E031DE7
:10067800392B7035203EF1007108FD00750803190B
:10068800462B472B4B2B0430F0007008FD07033036
:100698004106031D502B512B592B8430F0007D0847
:1006A80086008701700881006A2B7503031D5D2B86
:1006B8005E2B632B7D088600870181016A2B8830B9
:1006C800F0007D08860087017008810008003D0061
:1006D8000F08031D702B712BA22B20002008F90096
:1006E8000230F936890B752B79080F39FA007A0828
:1006F800FB000D307B06031D822B832B872B833158
:10070800DA238331D92B3A03031D8B2B8C2B9E2B99
:100718008631452683312000201F932B942B992B5B
:100728008830F9007908A000D92BC830F900790879
:10073800A000D92B8731D2278331D92B04300F065B
:10074800031DA72BA82BD92B1608031DAC2BAD2BEB
:10075800C12B043020003F06031DB32BB42BC12B43
:1007680042083D0096001608031DBB2BBC2BC12B6D
:100778000330F90079082000BF00023020003A0653
:10078800031DC72BC82B9E2B823179228331200071
:10079800241FCF2BD02BD52B8830F9007908A40043
:1007A800D92BC830F9007908A40008007F30F80078
:1007B80078082000A4057F30F8007808A005BA0161
:1007C800B801B901B001B1018031C920833180314C
:1007D8002F20833120003808031DF32BF42B032C22
:1007E8000830A1004030A2000030A3008430F80097
:1007F8007808A0008430F8007808A400412CC01FB5
:10080800062C072C302C31084702031D0D2C30080C
:1008180046020318102C112C152C4708B100460865
:10082800B0008231792283310230F8007808200044
:10083800BA000830A1004030A2000030A300803088
:10084800F8007808A0004930A6000030A700C8309A
:10085800F8007808A400412CBA01BA0AA501C830EA
:10086800F8007808A4000830A1004930A200003040
:10087800A300C830F8007808A0003D000E12080058
:10088800200040081F39F0007008F400C901CA01AF
:100898007408031D502C512C602CB801B80A3B0871
:1008A8000319572C582C592C49143D0803195D2C51
:1008B8005E2C9A2CC9149A2C7403031D642C652C85
:1008C800682CB801B80A9A2C02307406031D6D2CE6
:1008D8006E2C9A2C44080F39F0007008F200440876
:1008E8008039F0007008F300B801B80A7208F00007
:1008F8000230F035FF3E031D7D2C7035203EF1009F
:100908007108FD00730803198A2C8B2C8F2C043076
:10091800F0007008FD077D0886008701011D952CF1
:10092800962C9A2C0130F0007008C9003808031979
:100938009E2C9F2CA82C4930F0007008B60002307D
:10094800B0000030B100B50108008030200040063A
:10095800031DAF2CB02C092D4308F0007008F400DB
:100968004208F0007008F3007403031DBC2CBD2C72
:10097800CA2CB801B80A7F30B2008730B3001230F1
:10098800B0000030B100B501B50A092D0230740677
:10099800031DCF2CD02CDB2CB801B80AF530B200DF
:1009A8008630B3002230B0000030B100C72C0330CD
:1009B8007406031DE02CE12C092DB801B80A033098
:1009C8007302031CE82CE92CEE2C0630B2009030A0
:1009D800B300FD2C7308F000F101F035F10D003083
:1009E800700784009030713D8500003FB200013FE0
:1009F800B30032088400330885000008F000F101D4
:100A08007008B0007108B100C72C08002000DD0094
:100A18005D08DA000230DA35FF3E031D0F2D5A3526
:100A28002C3E86008701811F1A2D1B2D1C2D642D3D
:100A38005D08DA000130DA35FF3E031D1F2D5A35F7
:100A4800613E860087010108DB005D08DC0002309A
:100A5800DC35FF3E031D2C2D5C352D3E86008701BD
:100A68005B0881005D08DA000230DA35FF3E031DBD
:100A7800392D5A352C3E86008701011F442D452DFE
:100A8800552D8830DA005D08DB000230DB35FF3E8B
:100A9800031D4A2D5B352C3E860087015A088100CC
:100AA800642DC830DA005D08DB000230DB35FF3E1C
:100AB800031D5A2D5B352C3E860087015A0881009C
:100AC80008002000DD005D08DA000230DA35FF3E5C
:100AD800031D6A2D5A35283E86008701811B752D16
:100AE800762DBE2D5D08DA000130DA35FF3E031D94
:100AF800792D5A35633E860087010108DB005D08C1
:100B0800DC000230DC35FF3E031D862D5C35293EB6
:100B1800860087015B0881005D08DA000230DA355B
:100B2800FF3E031D932D5A35283E86008701011F7D
:100B38009E2D9F2DAF2D8830DA005D08DB00023036
:100B4800DB35FF3E031DA42D5B35283E860087015B
:100B58005A088100BE2DC830DA005D08DB0002307B
:100B6800DB35FF3E031DB42D5B35283E860087012B
:100B78005A08810008002000DE00DD015D08513EB2
:100B88008600870181010130DA005A08DD07033049
:100B98005D02031CD02DD12DC22D5E080319D52D61
:100BA800D62D092E0C16DB01DC015E1EDC2DDD2D99
:100BB800E22D8030DA005A08DC00EA2DDE1EE52D31
:100BC800E62DEA2D7F30DA005A08DC005E1FED2D95
:100BD800EE2DF32D8030DA005A08DB00FB2DDE1FE6
:100BE800F62DF72DFB2D7F30DA005A08DB005B0865
:100BF800DA005A08D1005C08DA005A08D2005E0808
:100C08000F39DA005A08D3000A2E0C120800220005
:100C18000E163030890B0E2E22000E122000DC0139
:100C2800DD01DE01031020008E1D03140030093D94
:100C3800DA005D0A202EDA35890B1F2E5A08DB00F0
:100C48005B08DC0422008E161830890B292E22003E
:100C58008E121830890B2E2E01302000DD0700304F
:100C6800DE3D5E08803ADA0080305A02031D3E2ECF
:100C780008305D02031C412E422E162E20005C080F
:100C88000800033020002005F0007008F400210857
:100C9800F30073083007B0007408313DB1004930E3
:100CA800F0007008B600F101F201702E36088600D7
:100CB80087010108F0007D0886008701700881001F
:100CC8000130F0007008B6070130F0007008FD0729
:100CD8000130F1070030F23D74087202031D762ED0
:100CE80073087102031C792E7A2E5A2E08000530DB
:100CF80020003F06031D812E822E8A2E3D008E186D
:100D0800862E872E8A2E87319127863186310B26AB
:100D180086312000DF005F08E00060083E06031D02
:100D2800962E972E982EA52E60088531BF258631E0
:100D3800003085310A25863120006008DF005F0811
:100D4800BE0008000534013409340534A1340134E7
:100D5800A1340034053401340934303409343134D1
:100D68001534813425347F3475340834953402348D
:100D780081340234053409341934013429340434F3
:100D8800153400342534013475340134953408346D
:100D980081340234C034C0342000DB005B080319FE
:100DA800D62ED72ED92E0030F42E5B08DA0002306A
:100DB800DA35FF3E031DDC2E5A35283E86008701B2
:100DC800811BE72EE82ED72E5B08DA000230DA35D1
:100DD800FF3E031DEB2E5A35293E86008701010888
:100DE8000800093402342234003401340134003458
:100DF800A034323409340434003400340134033468
:100E080001340034003409342134113401340034FD
:100E1800013422342A34003407340534813403344D
:100E28000334003401343D00930190019F30970052
:100E38007B309200960116309800232F901190195C
:100E4800262F272F222F0E128731D22787312000F5
:100E5800BD01BB01D9010330F1007108BF000800D2
:100E68001C3403344A3400346F340034653400349D
:100E7800203400344F340034733400347434003474
:100E880072340034613400346E3400346434003415
:100E980065340034723400343D008E19542F552FB8
:100EA8005B2F8E0192018E152000BF01BF0A3D0005
:100EB8008E1A5F2F602F5B2F900192011214121669
:100EC80002302000DA005A08BF0008008731C22724
:100ED80087318731EC2787318731B22787318731CE
:100EE800502787318731F727873186317B2687312D
:100EF800792F803110281234013400340234003440
:100F0800003400340834D8340434A63401340134AD
:100F18000034013402340034013400308631D026E4
:100F28008731003A0319992F9A2FA12F8731FF276C
:100F38008731003085316525873108001034033446
:100F48004E340034453400345334003432340034E1
:100F580055340034533400344234003414303D00E6
:100F680091002000BF01BD01D9013D009601930108
:100F78008F31E22787313D000E12080023008C01D3
:100F88008E0121009801FC309900903027009B00C9
:100F9800C3302100950022008E0108002000BA010C
:100FA8000830A1004030A2000030A3008830F000D3
:100FB8007008A000A40108003D00181CE42FE52FCC
:100FC800EA2F8731D22787313D0018109012080088
:100FD80023008E1121008E150E128E1223000C1282
:100FE80021000C1208004B303D0092000B178B17A4
:080FF800210012150800080099
:101FBE003D00101308003D000E170E1308000334E9
:101FCE00513403345434640080010131890BEB2FFA
:101FDE0000343D001215EF30F000700890058E149D
:101FEE0008003D008E101211FB30F00070089005B5
:101FFE0008000634903434348734A23487340434E1
:06200E0003340934043420
:020000040001F9
:04000E00A4CFCFDFCD
:00000001FF
